:020000040800F2
:10000000C87400209D0100085F5700086748000879
:100010005D57000839150008316100080000000034
:100020000000000000000000000000008B5A0008E3
:10003000F11600080000000061570008C55A0008CA
:10004000B7010008B7010008B7010008B7010008B0
:10005000B7010008B7010008B7010008B7010008A0
:10006000B7010008B7010008B7010008B701000890
:10007000B7010008B7010008B7010008B701000880
:10008000B7010008B7010008B7010008B701000870
:10009000B7010008B7010008B7010008F31600080F
:1000A000B7010008B7010008B7010008B701000850
:1000B000B7010008B7010008E95C0008B7010008B3
:1000C000B7010008B7010008B7010008B701000830
:1000D000B701000825610008B7010008B701000852
:1000E000B7010008B7010008B7010008B701000810
:1000F000B7010008B7010008B7010008B701000800
:10010000B7010008B7010008F55C0008B701000856
:10011000B7010008B7010008B7010008015D000839
:10012000E5160008B7010008B7010008B70100088C
:10013000B7010008B7010008B7010008B7010008BF
:10014000B7010008B7010008B7010008B7010008AF
:10015000B7010008B7010008B7010008B70100089F
:10016000B7010008B7010008B7010008B70100088F
:10017000B7010008B7010008B7010008000000003F
:10018000B7010008B7010008DFF80CD001F0C0F893
:1001900000480047996E0008C87400200648804750
:1001A00006480047FEE7FEE7FEE7FEE7FEE7FEE75C
:1001B000FEE7FEE7FEE7FEE7755B00088901000841
:1001C0009FED3A0A5FEA920C53D000BFF0EC010AAF
:1001D0000B1DB0EC011A60EEA00A41EE010AF5EE2B
:1001E000C00AF1EE10FAC6BFB1EEE01A81ED001AB6
:1001F00081ED000AF0EC010A191DB0EC011A60EE65
:10020000A00A41EE010AF5EEC00AF1EE10FAC6BFEF
:10021000B1EEE01A83ED001A83ED000AF0EC010A5A
:100220000B1DB0EC011A60EEA00A41EE010AF5EEDA
:10023000C00AF1EE10FAC6BFB1EEE01A81ED001A65
:1002400081ED000AF0EC010A191DB0EC011A60EE14
:10025000A00A41EE010AF5EEC00AF1EE10FAC6BF9F
:10026000B1EEE01A83ED001A83ED000ABCF1010C37
:10027000ACD112F0030208BF704700BFF0EC010AD6
:100280000B46B0EC011A091D60EEA00A41EE010A0E
:10029000F5EEC00AF1EE10FAC6BFB1EEE01A83ED3A
:1002A000001A83ED000A521EE8D1704700000000DA
:1002B0002DE9F04F8D082DED048B82B00026AC4661
:1002C0003446019506EB0C0909EB0C0A0AEB0C0805
:1002D00000EBC60700EBC90900EBCA0A00EBC8082F
:1002E00097ED003AD9ED003ADAED006A98ED006A30
:1002F00097ED010ADAED014A33EE265A73EE860ACB
:1003000099ED014AD8ED015A30EE241A4FEA440B18
:1003100002EBCB0E70EE644A74EE251A35EE200A1D
:100320009EED002ADEED012A87ED000A31EE210A5A
:1003300073EEC63A34EE656A87ED010A35EE600A5F
:1003400033EE663A71EE610A02EBC40774EEE35ACB
:1003500033EE064A97ED005A73EEA41AD7ED014A20
:1003600033EE461A24EE056A0BEB040725EE855A98
:1003700002EBC70760EE026A65EEA45A24EE244A37
:1003800097ED003AD7ED013A60EEA24A20EE822ABC
:1003900021EE037A20EE220A61EEA30A21EE833ACF
:1003A00061EE231A76EEA42A32EE400A36EE251AC2
:1003B00075EE443AC9ED002A77EE200A89ED010A6C
:1003C00073EE611A8AED001ACAED013AC8ED000A0F
:1003D000761CC8ED011A1C446D1E7FF473AF4FF6F6
:1003E000FF7404EA830B019B0093042B7DD96646BE
:1003F0004FEA9C0C4FF00008C146ACF1010E00BF63
:100400004FEA480303EB080402EBC30302EBC80501
:1004100093ED003AD3ED014A02EBC40395ED005A87
:10042000D5ED015A93ED006A93ED014AD8444B464D
:1004300003EB0C0404EB0C0707EB0C0A00EBC30501
:1004400000EBC70700EBC40400EBCA0AD5ED003A85
:1004500097ED007AD4ED008A9AED008A95ED010AB5
:10046000D4ED010AD7ED017ADAED011A33EEC72A8D
:1004700070EE676A70EEE12A33EE877A78EE883A9A
:1004800030EE270A38EEC81A70EEA11A72EE227A00
:1004900032EE622A77EE232A70EE618A36EEC18A46
:1004A00030EE210A77EE630A31EE261AC5ED002AF6
:1004B00085ED010A28EE050A67EE856A28EE258A91
:1004C00020EE837A20EEA49A68EE831A62EE062A62
:1004D00061EE063A62EE040A67EEA57A68EEA48A37
:1004E00021EE041A36EE882A00E027E077EE286A2B
:1004F00071EEC91A30EE670AC4ED006A32EE811A55
:10050000C4ED011A73EEE00A87ED002A87ED010AB7
:100510008AED001A3344CAED010A8B4288D309F1EF
:100520000109F1457FF66CAF4FF6FF7303EA8B0BC1
:10053000009B9B080093042B3FF659AFDDF8041095
:1005400090ED000AD0ED042A90ED025A90ED031AC6
:10055000D0ED064A90ED073A30EE222AD0ED011A8E
:10056000D0ED050A75EE243A31EE034A30EE620A08
:1005700071EEA02A31EE431A32EE233A71EEE00A10
:1005800075EE641A72EE844A32EE632A72EEC43A51
:1005900080ED003A70EE012AC0ED014A30EEE14AEA
:1005A00080ED022A30EE410AC0ED033A71EEA00A56
:1005B000C0ED042A80ED054A80ED060AC0ED070A69
:1005C0002030491EBCD102B0BDEC048BBDE8F08FD9
:1005D0002DE9F04F4FEA910A2DED048B82B00024F3
:1005E000D446A046CDF804A004EB0C0505EB0C06A0
:1005F00006EB0C0900EBC40700EBC60600EBC505D3
:1006000000EBC909D7ED011AD6ED012A95ED006A74
:10061000D9ED006AD7ED005A96ED007AD5ED010AC2
:1006200099ED011A36EE262A71EEA23A35EE873A96
:1006300071EEE21A30EE815A70EEC12A4FEA480B91
:1006400002EBCB0E73EE020A9EED004ADEED014A8C
:10065000C7ED000A73EE850A36EE666A75EEC75A74
:10066000C7ED010A33EE422A02EBC80731EE861AC3
:1006700033EEC53A71EEC61A97ED006A97ED015A4E
:1006800075EEE20A0BEB080702EBC70775EEA22A2C
:10069000D7ED005AD7ED013A60EE866A22EE047A71
:1006A00062EEA57A23EE044A21EE066A61EEA55AAF
:1006B00060EE850A23EE243A22EE242A21EE051A62
:1006C00061EEA31A62EEA32A76EE203A37EE433AA1
:1006D00074EE020A36EEC11A85ED003A77EEE11AA1
:1006E000C5ED010A35EEA22A86ED001AC6ED013AE3
:1006F000C9ED001A641C89ED012A9844BAF1010A77
:100700007FF472AF4FF6FF7404EA830B019B0093F2
:10071000042B7CD966464FEA9C0C4FF00008C1467A
:10072000ACF1010E4FEA480303EB080402EBC303EC
:1007300002EBC805D3ED003A93ED017A02EBC40356
:10074000D5ED006AD5ED015AD3ED004A93ED013A9B
:10075000D8444B4603EB0C0404EB0C0707EB0C0AE4
:1007600000EBC30500EBC70700EBC40400EBCA0AAB
:1007700095ED012A97ED018A95ED001AD4ED008AD6
:10078000D4ED017A97ED009ADAED001ADAED010A5C
:1007900032EE485A71EE492A38EEE14A32EE082A22
:1007A00037EEA08A37EEE06A78EEA11A31EE091A28
:1007B00075EE048A72EEC67A72EE862A71EE610ACE
:1007C00031EE211A35EE444A32EE489A85ED001A90
:1007D00032EE081A28EEA66A27EEA65A68EEA58A17
:1007E00085ED011A20EEA31A69EE231A22EEA42A3F
:1007F00024EE248A67EEA57A29EE079A60EE870A2E
:1008000024EE034A62EE832A35EE685A00E027E0C0
:1008100036EE276A71EE497A31EEA01A72EE440A7A
:10082000C4ED007A84ED011A78EE221A87ED005AA1
:1008300087ED016ACAED000A3344CAED011A8B4202
:1008400088D309F10109F1457FF66CAF4FF6FF73CC
:1008500003EA8B0B009B9B080093042B3FF65AAFD7
:10086000DDF8041090ED003AD0ED044AD0ED032AF3
:1008700090ED071A90ED024AD0ED061AD0ED013A3C
:10088000D0ED050A33EE242A72EE815A33EE643A33
:1008900034EE215A73EEA04A73EEE03A32EEC11AFA
:1008A00074EE610A32EE454A72EE052A74EEA51A1C
:1008B00034EEE55A73EE414A33EEA02A33EE011AC4
:1008C00033EEE03A62EE805A61EE800A64EE003A5E
:1008D00065EE002AC0ED005A64EE801AC0ED010AF0
:1008E00022EE002AC0ED023A21EE004AC0ED032AB2
:1008F00023EE001AC0ED041A80ED052A80ED064AA9
:1009000080ED071A2030491EACD102B0BDEC048B3B
:10091000BDE8F08F70B504460D4680782188A38924
:10092000626801280ED02846FFF7C2FCE078012853
:1009300018BF70BDE28921882846A368BDE87040D1
:1009400000F066B894ED040A2846FFF741FEEDE793
:1009500010B40180234C446082704FF0000CC370CF
:10096000B1F5807F20D004DC10292FD0402906D19A
:1009700022E0B1F5806F0FD0B1F5805F04D04FF069
:10098000FF3C10BC6046704701218181C18116493E
:100990009FED160A816016E004218181C18114490E
:1009A0009FED140A81600EE010218181C1811249FE
:1009B0009FED120A816006E040218181C1811049CA
:1009C0009FED100A816080ED040ADAE74FF4807130
:1009D0008181C1810C499FED0D0A816080ED040A7F
:1009E000CFE70000CC7C0008CC7400080000803900
:1009F000D27400080000803AEA7400080000803BCE
:100A00004A7500080000803CCA7600080000803D5E
:100A10002DE9F0014E0801244FF0000C04EB5107C2
:100A20006146A6F102082CE061452AD200EBCC0514
:100A300000EBC104D5ED000A94ED000AC4ED000AF4
:100A400085ED000AD5ED010A94ED010AC4ED010A15
:100A500085ED010ACC1900EBC4050CEB070400EB93
:100A6000C40495ED000AD4ED000AC5ED000A84ED3A
:100A7000000AD4ED010A95ED010AC5ED010A84EDE5
:100A8000010A00EBC104B44400EBCC0C94ED020A63
:100A9000DCED000A891CC4ED020A8CED000ADCEDD5
:100AA000010A94ED030AC4ED030A8CED010AB3F8C0
:100AB00000C089B203EB42034145B5D9BDE8F0015E
:100AC00070472DE9F00701254C0805EB51064FF062
:100AD000000C651E6146002D88BFA8462ED8BDE8D3
:100AE000F0077047614529D250F8315050F83C70FA
:100AF00040F8317040F83C5000EBC10700EBCC09E6
:100B00007D68D9F804A0C7F804A0C9F804508D196D
:100B10000CEB060750F8359050F837A040F835A098
:100B200040F8379000EBC50500EBC707D5F80490F7
:100B3000D7F804A0C5F804A0C7F8049000EBC105DD
:100B4000A444AF6850F83C90C5F8089040F83C7059
:100B500000EBCC0CEF68DCF80490C5F80C90CCF8F6
:100B60000470B3F800C0891C03EB42034145B9D3BC
:100B7000BDE8F00770472DE9F00F01244D084FF054
:100B8000000C04EB5107012D9CBFBDE8F00F70472E
:100B9000014600EB870400264FEA550815E000BF28
:100BA000BCEB460F11D950F82CA0D1F80090C1F839
:100BB00000A040F82C900CEB0709D4F800A050F8E6
:100BC00029B0C4F800B040F829A0AC44D1F8049092
:100BD00050F82CA0C1F804A040F82C90B3F800C045
:100BE00008310834761C03EB4203B8F10108D7D171
:100BF000BDE8F00F704740EA01039B0703D009E00E
:100C000008C9121F08C0042AFAD203E011F8013BF8
:100C100000F8013B521EF9D27047421C10F8011B2C
:100C20000029FBD1801A7047034611F8012B00F808
:100C3000012B002AF9D1184670472DE9FE4F804656
:100C400081EA0300C00F0C46009021F0004123F020
:100C50000045B8EB0200A94105D240462146904626
:100C60001C460B46024623F00040104347D0270D98
:100C7000C7F30A00C3F30A510290401A01904028BA
:100C80006BDAC3F3130040F4801B0098924620B146
:100C90000023D2EB030A63EB0B0B01985946C0F11A
:100CA0004002504600F005FA06460D4650465946A9
:100CB000019A00F01DFA10EB08006141002487EA58
:100CC000115284EAE7731A4340D0009A62B3019A42
:100CD000012A4FEA075215DC001B61EB02014FF0BD
:100CE000004202EA0752CDE90042001C41F58011A2
:100CF00032462B4600F054FA03B0BDE8F08F404670
:100D00002146F9E7001B61EB0201001C41F580134D
:100D100000185B412018A2F5001747EB030140EAD9
:100D2000D570B6196D4111E06D084FEA360645EAF7
:100D3000C0754FEA0752001B61EB0201001C41F530
:100D4000801149084FEA30000019514132462B46C4
:100D500003B0BDE8F04F00F014BA00980122400043
:100D60000023D0EB020263EBE073009821464FEAC8
:100D7000E074B8EB000061EB0401E9E783F00043A5
:100D80005BE781F0004158E72DE9FE4F81EA03045B
:100D900004F0004421F0004100944FF0000B23F0D8
:100DA000004350EA01045ED052EA03045BD0C3F36F
:100DB0000A54C1F30A552C44A4F2F3340194A0FB65
:100DC0000254C1F3130141F48011C3F3130343F43C
:100DD000801301FB024400FB034E840A970A44EA95
:100DE000815447EA8357A4FB076802958D0A05FBE7
:100DF00007854FEA932C04FB0C542705029D4FEA0C
:100E0000065847EA1637B5EB08056EEB070C870E58
:100E1000920E47EA811742EA8312A7FB0201B6EB62
:100E20000B0164EB00042B0D43EA0C335E1844EB1A
:100E30001C50DA465146E7FB0201C5F313044FEAA2
:100E40000B3343EA14534FEA0432019C43EA06038E
:100E5000A4F10C040294009CCDE900B400F0A0F9C8
:100E600003B0BDE8F08F00200146F9E72DE9F04D11
:100E700081EA030404F0004B21F0004514464FF0D2
:100E8000000A23F0004150EA050220D054EA010292
:100E90001DD0C5F30A570246C5F31303C1F313006F
:100EA000C1F30A5640F4801543F48013A7EB0608FB
:100EB000101BD64608F2FD3873EB050002D308F18B
:100EC000010801E092185B41B8F1000F03DA00203D
:100ED0000146BDE8F08D00204FF48011064684469F
:100EE0000EE0171B73EB050705D3121B63EB05031D
:100EF00006434CEA010C49084FEA300092185B4166
:100F000050EA0107EDD152EA030012D082EA040050
:100F100083EA0501084305D0101BAB4106D201222C
:100F2000002306E000224FF0004302E06FF00102D0
:100F300053101AEB06004CEB085110EB0A0041EB82
:100F40000B01BDE8F04D00F01CB90EB540F2334185
:100F500002910021CDE900110A460B4600F020F96C
:100F600003B000BDC1F30A5210B5C1F3130140F242
:100F7000FF3341F480119A4201DA002010BD40F2A3
:100F800033439A42A2F2334203DC524200F0A0F80B
:100F900010BD904010BD00F0004230F000400AD07B
:100FA000C10D01F56071C0F3160042EA0151C2089B
:100FB00040071143704700200146704730B5041EBA
:100FC00071F1000404DB4FF00044404264EB010186
:100FD000141E73F1000405DB1C464FF0004352421F
:100FE00063EB0403994208BF904230BD01F0004317
:100FF00030B421F0004150EA010206D00A0DA2F5FA
:101000006072C1F31301002A02DC30BC002070477B
:10101000440F44EAC104C100E01830BC00EBC250E8
:1010200000F078B830B50B4601460020202201249C
:1010300009E021FA02F59D4205D303FA02F5491BA6
:1010400004FA02F52844151EA2F10102F1DC30BDBC
:101050002DE9F05F0546002092469B4688460646ED
:10106000814640241BE0284641464746224600F080
:101070002FF853465A46C01A914110D311461846CC
:10108000224600F016F82D1A67EB01084F4622465B
:101090000120002100F00DF817EB00094E41201E41
:1010A000A4F10104DFDC484631462A464346BDE848
:1010B000F09F202A04DB203A00FA02F1002070475A
:1010C0009140C2F1200320FA03F319439040704786
:1010D000202A04DB203A21FA02F00021704721FA8D
:1010E00002F3D040C2F120029140084319467047F4
:1010F000202A06DBCB17203A41FA02F043EAE073DC
:1011000006E041FA02F3D040C2F1200291400843C8
:10111000194670470029A8BF7047401C490008BF06
:1011200020F00100704710B4B0FA80FC00FA0CF017
:1011300050EA010404BF10BC704749B1CCF120044F
:1011400021FA04F411FA0CF118BF012121430843DC
:10115000A3EB0C01CB1D4FEA00614FEA102042BF08
:10116000002010BC704700EBC35010440029A4BFFE
:1011700010BC7047401C490008BF20F0010010BCA3
:10118000704710B5141E73F1000408DA401C41F1D9
:10119000000192185B411A4301D120F0010010BDFB
:1011A0002DE9F04D92469B4611B1B1FA81F202E071
:1011B000B0FA80F220329046FFF77BFF04460F46DC
:1011C00040EA0A0041EA0B0153465A46084313D04D
:1011D000114653EA010019D0C8F140025046FFF70A
:1011E00077FF05460E46504659464246FFF761FFD7
:1011F000084305D0012004E020463946BDE8F08DC3
:101200000020054346EAE0762C4337430A986305FD
:10121000E40AA0EB08000022FD0A44EA47540A3021
:1012200002D500200146E9E7010510196941DDE911
:10123000084500196941BDE8F04DA2E72DE9F04DE0
:1012400000231A461B1A8A4103DB00200146BDE831
:10125000F08DC1F30A52C1F3130141F480154FF030
:10126000000BD10702D100186D41521E0027044621
:1012700040F2FF11384601EB620A3E4680460246C4
:1012800000204FF48011FFF723FFC2197141BB18F2
:1012900046EB0100B4EB030C75EB000C04D3E41A2D
:1012A00065EB000517460E46241908F101006D4153
:1012B00080463428E3DDF91946EB0600091BA841F6
:1012C00003D24FF0FF32134601E0002213461BEB1E
:1012D000070046EB0A51BDE8F04DFFF752BFC1F3DE
:1012E0000A52C1F3130140F2FF3341F480119A42D4
:1012F00002DA00200146704740F233439A42A2F2DC
:10130000334202DC5242FFF7E3BEFFF7D2BE0000D9
:10131000064C074D06E0E06840F0010394E8070042
:1013200098471034AC42F6D3FEF732FFCCFC0008ED
:10133000ECFC0008144A9FED130A101F4FF4806163
:10134000D0ED010A30EE800AD0ED020A0830491EC5
:1013500030EE800AF4D1101FDFED0C0A4FF48061EB
:1013600020EE200AD0ED010A70EEC00AC0ED010A9D
:10137000D0ED020A70EEC00AC0ED020A0830491E24
:10138000F0D1704700000000C41400200000003AB3
:10139000154940F2FF1201F5005391ED000A18467D
:1013A00083ED000A9FED110A83ED010AD1ED010AD8
:1013B00091ED021AC0ED020A80ED030AD1ED030A95
:1013C00080ED041A80ED050A10300831521EEFD16D
:1013D000074940F2FF3003EBC000D1ED000AC0ED39
:1013E000000A80ED010A7047C414002000000000CC
:1013F000C024002006489FED070A4FF4806100BF1B
:1014000080ED010A80ED020A0830491EF8D17047CC
:10141000C01400200000000030B4214C214D2046B3
:10142000218840F2FF3300EE101A2946F8EE400AF8
:101430009FED1D0A20EE801ADFED1C0A21EE201A16
:1014400085ED001A628800BF01EE102A30F804CF43
:10145000B8EE411A21EE001A21EE201A81ED011A90
:1014600001EE10CA4288B8EE411A21EE001A21EEB0
:10147000201A81ED021A08315B1EE5D1B4F8FE1F77
:1014800040F2FF7001EE101A05EB8000B8EE411A31
:1014900021EE000A20EE200A80ED000A30BC7047E1
:1014A00030000020C4140020333353400000803942
:1014B00010B50246806B016C11F0500F05D0806BA7
:1014C000C16CBDE8104010460847016C41F4007142
:1014D000016401688A6812F0405F04BF8269002AD3
:1014E00017D1CA6A12F4700F1CBF8A6812F4806F99
:1014F0000FD14A6822F020024A60016C21F4807109
:101500000164016C11F4805F03D1016C41F00101B1
:10151000016400F0EFFF10BD10B5806B4021016445
:10152000416C41F00401416400F0FDFF10BD10B5B5
:10153000806B00F0F7FF10BDFEE700EE101AD0ED53
:10154000000AB8EE400AF4EEC00AF1EE10FA22D218
:1015500000EE102AD0ED010AB8EE400AF4EEC00AFF
:10156000F1EE10FA17D200EE101AD0ED020AB8EE22
:10157000400AF4EEC00AF1EE10FA0CDD00EE102A7B
:10158000D0ED030AB8EE400AF4EEC00AF1EE10FA0C
:10159000C4BF0120704700207047F0B591B00446E9
:1015A000DDE9160617468DEC040A6D46ADF83830B5
:1015B000ADF83A0004A8FFF737FB394605F12400DF
:1015C000FFF732FB00208DF83E00ADF83C609DE84F
:1015D000EF10A4E8EF100DF1200E9EE8EF1084E864
:1015E000EF1011B0F0BD2DE9F84304461030FFF7BD
:1015F00014FBA0F1010804F12400FFF70EFBD4ED69
:10160000021A94ED001A471ED4ED030A31EE810A46
:10161000BDEEC00A10EE100A94ED010A00EBD07086
:1016200030EE802A4610BDEEC22A12EE100A00EB00
:10163000D070451094F83E0048B3FCEEE00A608F8D
:10164000009010EE900AFCEEE10ABCEEC00A83B2F4
:1016500010EE900A82B210EE100ABCEEC10A81B2FE
:1016600010EE100A80B203F0DFFC04F124000090B9
:10167000A5F10C0081B2A7EB870006EB40000C3807
:10168000638FA28F80B200F09BFDBDE8F883FCEE73
:10169000E00A208F009010EE900AFCEEE10ABCEE0A
:1016A000C00A83B210EE900A82B210EE100ABCEEAD
:1016B000C10A81B210EE100A80B203F0B5FC04F149
:1016C00010000090A5F10C0081B2A8EB880006EB99
:1016D00040000C38238FA28F80B200F071FDBDE86E
:1016E000F8830000014801F0EBB8000078100020FA
:1016F00070474FF4807001F0F1BA000030B5144C1F
:1017000087B00025206840F04000206020686946CE
:1017100000F040000590A01500900E48CDE90105AD
:101720000D4801F0E7FA206840F0200020602068B2
:10173000694600F02000059001200090CDE90105E8
:1017400003200390054801F0D5FA07B030BD000032
:1017500030380240000031100018024000140240EE
:1017600000B593B00123002299020EA8FFF7F0F80C
:101770001F490EA8FFF7CEF81E494FF48062A1F56D
:101780000050FEF71DFD1C48DFED1C0A4FF40071F0
:10179000B0EE000A90ED011A21EE001A21EE201A97
:1017A00080ED011A90ED021A21EE001A21EE201AA6
:1017B00080ED021A0830491EECD104F009FA10EE4F
:1017C000100AFFF7E8FB41EC100B0DA153EC102BB6
:1017D00001A804F0C5FD01A8009000234FF6FF7298
:1017E00040F2B3111E2000F0EBFC13B000BD00006E
:1017F000C4340020C4540020C05400200000803AAB
:10180000544844203D20252E3466252520202000E4
:1018100030B4B3F5804F18BF6FF0704105D000BFF2
:1018200040F8221030BC0020704750F82230DFF81A
:1018300028C08D8903EA0C03D1E900C44CEA041CDA
:101840008C688969240244EA05444CEA040C4CEA99
:1018500001011943E4E700000000F0CF70B40B6809
:1018600050F82320DFF84CC0D1E9035602EA0C0CF3
:10187000D1E90142144335432C434D692C438D6912
:101880002C43CD692C430D6A2C434D6A2C438D6A41
:101890002C43CD6A2C43CD6B096B2C43214341EA89
:1018A0000C01082A08BF41F0400140F8231070BC29
:1018B000002070478000F0FF10B400EB8200426807
:1018C000D1E9003C43EA0C13D1F808C08C894FEAF7
:1018D0000C2C4CEA044C43EA0C03B1F810C00A4C3F
:1018E00002F0404204EB0C5C43EA0C0391F814C094
:1018F000640104EB0C6C896943EA0C03194311433E
:10190000416010BC002070470000F0FF2DE9F0415D
:10191000364C0D46064601221146204601F011FBC9
:1019200001220221204601F00CFB28200021491C45
:1019300089B28142FBD300220121204601F001FB44
:1019400028200021491C89B28142FBD300220221B8
:10195000204601F0F6FA702002F0F6FF03F062F87C
:10196000002002F0F1FF03F05DF803F035F80122EA
:101970001146204601F0E5FA01220221204601F03D
:10198000E0FA28200021491C89B28142FBD30022C1
:101990000121204601F0D5FA28200021491C89B2F6
:1019A0008842FBD800220221204601F0CAFA7120A9
:1019B00002F0CAFF03F036F80024002D88BF6F1E26
:1019C0000ED9BC4204D1002002F04EFF305503E096
:1019D000012002F049FF3055601C44B2AC42F0D304
:1019E00002F0FAFF0020BDE8F0810000001802407C
:1019F000124810B5026886B0002142F04002026031
:101A000000680F4C00F0400005900320009011206A
:101A1000CDE90101012003906946204601F06AF9F1
:101A200001220221204601F08CFA012211462046B3
:101A300001F087FA02F0D0FF06B010BD3038024046
:101A40000018024000EE101AD0ED000AB8EE400A6D
:101A5000F4EEC00AF1EE10FA22D200EE102AD0ED18
:101A6000010AB8EE400AF4EEC00AF1EE10FA17D2FD
:101A700000EE101AD0ED020AB8EE400AF4EEC00AE9
:101A8000F1EE10FA0CDD00EE102AD0ED030AB8EEEC
:101A9000400AF4EEC00AF1EE10FAC4BF012070470C
:101AA0000020704770B50E4604461546C4E906622C
:101AB0002946304605F0BBF984ED0A0A294630462E
:101AC00005F080F984ED0B0AD4ED0A0A204630EEC9
:101AD000600AF1EE040A80EE201A84ED0D1A70BD42
:101AE00000B5A1B00A218DEC040A31EE400A802233
:101AF0008DED040A31EEE00A8DED050A0E91052107
:101B00000F910021ADF86A1001218DF86810694627
:101B1000FFF771F821B000BD2DE9F0412DED0E8BDE
:101B2000ADF5824D0446F0EE40CA8846B0F86A0032
:101B3000009094ED030ABCEEC00A10EE100A94ED7A
:101B4000020A83B2BCEEC00A10EE100A94ED010A3C
:101B500082B2BCEEC00A10EE100A94ED000A81B207
:101B6000BCEEC00A10EE100A80B203F05DFAD4E9B0
:101B70000607394605F05BF984ED0A0A3946A06983
:101B800005F020F9B0EE401A84ED0B1AE16BD4EDAC
:101B90000A0AC81E01EE900A31EE600AB8EEE12A88
:101BA000C0EE021A30EEE1AA00EE900AF8EEE01A5A
:101BB000C0EE210A30EE810A94ED031AF0EE080A15
:101BC00071EE608A94ED011A30EE4A0A31EE209AE5
:101BD000B5EEC00AF1EE10FA94BF9FEDF31AB0EE25
:101BE000401A78EEC91A94F86800B3EE09CA0128C1
:101BF000C1EE81AA94ED001AD4ED081A31EE208AC4
:101C000094ED021A71EE609A00EE907A39EEC81ADD
:101C1000F8EEE00AC1EE20BAD4ED090A70EEE10A4E
:101C200081EE20BA40F05681A06B491E421E01EEA3
:101C3000102A002544F20806B8EEC11A6E440028A6
:101C4000C0EE811A00EE901AF8EEE00A80EE201A3B
:101C5000C4ED0C1A84ED0D1A7EDDB2EE040AF2EE2C
:101C60000ADA38EE800ABCEEC0DA00BF00EE105A85
:101C7000D4ED0C0AB0EE481AB8EEC00AF0EE681ABD
:101C800043F6E71020EE0B0A00EE201A00EE105A81
:101C9000B8EEC00A20EE0B2AB0EE480A02EE200A87
:101CA000F0EE490AB0EE002A04F098FABFA13046DF
:101CB00004F056FB00EE105A009694ED0C1AB8EEA4
:101CC000C00A1DEE101A00234FF6FF7260EE0B0AD9
:101CD000B0EE480A89B200EE810A30EE6D0ABCEE21
:101CE000C00A10EE100A80B200F0EAF900EE905A35
:101CF00094ED080A94ED0C1AF8EEE00A00EE810A61
:101D000010EE100AFFF747F941EC100BA9A153ECB4
:101D1000102B304604F024FB00EE105A009694ED90
:101D20000C1AB8EEC00AF0EE480A1DEE101A002395
:101D300020EE0B0A89B24FF6FF7240EE010A30EE38
:101D4000ED0ABCEEC00A10EE100A80B200F0B8F93D
:101D5000A06B6D1CA84200E000E087DCB3EE0A0A2D
:101D600004F1400038EE800A0090F3EE0E0A0023E2
:101D7000BCEEC00A4FF6FF7210EE100A94ED020A94
:101D800081B230EE600ABCEEC00A10EE100A80B2DA
:101D900000F096F900259FED89EAE06B00287CDDD4
:101DA000F1EE04DA9FED860A38EE400ABCEEC0DAA6
:101DB00038EE4E0ABCEEC0BA00EE105A00EE905A51
:101DC00094ED0D2AB8EEC00AF8EEE00AF0EE681ABB
:101DD000B0EE481A20EE2A0A60EEAA2AF0EE680A4F
:101DE00043F6E71040EE421A42EEC20AB0EE690A2C
:101DF000B0EE002A04F0F2F972A1304604F0B0FA15
:101E000000EE105A009694ED0D1AB8EEC00A0023A9
:101E10004FF6FF7260EE2A0AB0EE680A00EEC10AC1
:101E200030EE6D0ABCEEC00A10EE100A81B21DEE53
:101E3000100A80B200F044F900EE905A94ED0D1AA9
:101E4000B0EE4A0AF8EEE00A00EE810A10EE100A3F
:101E5000FFF7A1F841EC100B5CA153EC102B3046BE
:101E600004F07EFA00EE105A009694ED0D1AB8EECA
:101E7000C00A00234FF6FF7260EE2A0AB0EE680A2D
:101E800000EEC10A30EE6D0ABCEEC00A10EE100A78
:101E900081B21BEE100A80B200E005E000F010F9FC
:101EA000E06B6D1CA84287DC39EE4C0A04F154004B
:101EB00000900023BCEEC00A4FF6FF7210EE100A2D
:101EC00038EE4E0A81B2BCEEC00A10EE100A80B2A3
:101ED00000F0F6F80025002FC8BF02AE28DD00BFD5
:101EE00000EE105AB0EE481A06EBC500B8EEC00A74
:101EF000F0EE681A0BEE801A80ED001AA16901EB72
:101F0000850191ED000A30EE4A0A4AEEC01AC0ED92
:101F1000011A55B1A0F108014046B0EE6C2AD1ED8E
:101F2000010A91ED000A04F059F96D1CBD42D7DB9E
:101F300004F16C00FEF771FEFFF707F89FED261B1A
:101F400053EC112BFEF720FF9FED251B53EC112BBB
:101F5000FEF71AFF38EE290AF6EE000A41EC1A0BDA
:101F600020EE200A10EE100AFFF715F853EC1A2B9A
:101F7000FEF704FFFEF7F6FF39EE4C0A04F16C01A0
:101F8000009180B2BCEEC00A00234FF6FF7210EE43
:101F9000101A89B200F094F80DF5824DBDEC0E8B4D
:101FA000BDE8F08100000000BD37863520202020EC
:101FB00020000000252E31660000000000005C4279
:101FC000000080422020202020202000252E336683
:101FD00000000000000000000000000000002040A1
:101FE000000000000000E03F10B504462DED068B18
:101FF00082B0B0F86A10009190ED030ABCEEC00AFE
:1020000010EE100A94ED020A83B2BCEEC00A10EE84
:10201000101A94ED010A8AB2BCEEC00A10EE100A42
:1020200094ED000A81B2BCEEC00A10EE10CA1FFA8D
:102030008CF002F0F9FFD4ED008A94ED018AD4ED22
:10204000039A94ED029AB1EE00AA4FF6FF74B0EE37
:10205000680AF0EE480A2046B0EE4A2AF0EE691A05
:10206000B0EE681A04F0BAF82046B0EE4A2AF0EE54
:10207000691AB0EE491AF0EE690AB0EE680A04F087
:10208000ADF82046B0EE4A2AF0EE481AB0EE491AF2
:10209000F0EE690AB0EE490A04F0A0F802B0B0EE22
:1020A0004A2AF0EE481AB0EE681AF0EE480AB0EE8E
:1020B000490ABDEC068B2046BDE8104004F08EB8FE
:1020C0002DE9F04F89B00746129E1C461546307820
:1020D0008B46002867D0DFF8E4800BF10F0AE94651
:1020E000C0B2802822D26946761C03F03BFCF81D62
:1020F00082B21FFA8AF35946384602F0D5FF002211
:102100005FF0000119F8020010F0800F14BFA8F86A
:102110000050A8F800404006000E491C0829F3D3DF
:10212000521C102AECD307F1080038E07178B61C75
:1021300041EA0020694603F029FC07F10F0082B252
:102140001FFA8AF35946384602F0AEFF4FF0000CF2
:102150005FF0000219F81C0010F0800F14BFA8F8FF
:102160000050A8F800404006000E521C082AF3D385
:1021700009EB4C000021407810F0800F14BFA8F844
:102180000050A8F800404006000E491C0829F3D36F
:102190000CF1010CBCF1100FDAD307F1100087B27B
:1021A000307800289CD1002140F2DF1340F25532F4
:1021B000084602F079FF09B0BDE8F08F0000026028
:1021C0002DE9F04F93B007461C9E1C46154630780B
:1021D0008B4600287BD0DFF854910BF1170AE846B4
:1021E0003078802848D26946761C03F0C4FB07F19A
:1021F0000B0082B21FFA8AF35946384602F054FFA8
:102200005FF000025FF0000118F8120010F0800F7C
:1022100014BFA9F80050A9F800404006000E491C60
:102220000829F3D308EB4200407810F0800F14BF68
:10223000A9F80050A9F800404006000E10F0800FE9
:1022400014BFA9F80050A9F800404006000E10F095
:10225000800F14BFA9F80050A9F80040400010F00A
:10226000800F14BFA9F80050A9F80040521C182A8A
:10227000C8D307F10C0048E07178B61C41EA002091
:10228000694603F097FB07F1170082B21FFA8AF341
:102290005946384602F008FF5FF0000202EB420C9C
:1022A0005FF0000018F80C1011F0800F14BFA9F8AF
:1022B0000050A9F800404906090E401C0828F3D335
:1022C0000CEB08030021587810F0800F00E021E0AB
:1022D00014BFA9F80050A9F800404006000E491CA0
:1022E0000829F1D39878002110F0800F14BFA9F8C5
:1022F0000050A9F800404006000E491C0829F3D3FD
:10230000521C182ACAD307F1180087B23078002867
:102310007FF466AF002140F2DF1340F255320846E9
:1023200002F0C2FE13B0BDE8F08F000000000260B2
:1023300010B5144602F0E6FE0148048010BD00000E
:102340000000026030B482B04FF0000CCDF804C041
:1023500090F83C20012A01BF022002B030BC704737
:10236000012280F83C200A6807230468092A14D94E
:10237000E5680A3A02EB420203FA02F225EA020297
:10238000E2600B788A680A3B03EB430302FA03F32B
:102390000268D4682343D36011E0256902EB42024E
:1023A00003FA02F225EA020222610B788A6803EB43
:1023B000430302FA03F302681469234313614A6872
:1023C0001F23072A16D20468656B521E02EB820295
:1023D00003FA02F225EA020262630B790A885B1EA5
:1023E00092B203EB830302FA03F30268546B2343B4
:1023F00053632DE004680D2A15D2256BD21F02EB22
:10240000820203FA02F225EA020222630B790A88A9
:10241000DB1F92B203EB830302FA03F30268146B2F
:102420002343136314E0E56A0D3A02EB820203FAD8
:1024300002F225EA0202E2620B790A880D3B92B2AF
:1024400003EB830302FA03F30268D46A2343D362E3
:10245000254B0468234A9C4204BF0C68122C03D10C
:10246000546844F48004546004689C422FD10B6883
:10247000102B18BF112B2AD1536843F4000353606B
:102480000968102923D11949194A0968B1FBF2F1E9
:1024900001EB810149000191009118D0B1F1004F89
:1024A0001BD20029D8BF002105DD11F0010102D0A7
:1024B000019A521E0192009A491C521C914206DA5E
:1024C000019B891C5B1E5B1E01939142F8DB80F827
:1024D0003CC002B0002030BC70470199491E0191F8
:1024E000FCD1F4E700230140002001402800002037
:1024F00040420F0010B5806B08490068884218BF41
:1025000010BD07480178002918BF10BD01210170D6
:10251000FEF782FFBDE81040FEF70CBF10640240DA
:10252000040000207047704770B504004FF00005AC
:1025300004BF012070BD206C002628B9666484F8B1
:102540003C60204600F0ACF8206C10F0100F18BF73
:10255000012503D084F83C60284670BD206C20F42F
:10256000885040F0020020644B48416821F440311B
:10257000416041686268114341602068416821F40C
:102580008071416020684168226941EA022141600E
:102590002068416821F04071416020684168A2686C
:1025A000114341602068816821F4006181602068E6
:1025B0008168E26811438160A06A6FF07061C8426F
:1025C0002068816821F0706181602068816808BF9F
:1025D00021F040510BD0A26A1143816020688168CC
:1025E00021F04051816020688168E26A1143816076
:1025F0002068816821F00201816020688168A269F9
:1026000041EA42018160206A00282068416808BFD1
:1026100021F4006113D041F40061416020684168F9
:1026200021F460414160206841684FF46043626A70
:1026300093FAA3F3B3FA83F3521E9A401143416015
:102640002068C16A21F47001C1622068C16AA28B4E
:10265000124B03EB02521143C1622068816821F4DE
:102660000071816020688168226B41EA42218160AB
:102670002068816821F480618160206881686269D6
:1026800041EA822181606664206C20F0020040F003
:10269000010020645EE70000002301400000F0FF1D
:1026A000F0B50646006887B0A0F18041B1F59031E1
:1026B0001CBF07B0F0BD00251848016841F48071C7
:1026C00001600068032700F4807005900120CDE9C7
:1026D000000769460295124800F00CFB124C1148A5
:1026E000C4E900050015A560C4E90350400060611D
:1026F0008000A0614011C4E9070504206062C4E9BC
:102700000A752046256300F0CFF918B1842107A08F
:1027100003F024FEB463A66307B0F0BD4438024062
:102720000008024010640240781000202E2E2F5323
:1027300072632F6164632E630000000030B583B0C4
:1027400000250446019590F83C001346012802BF7D
:10275000022003B030BD012084F83C00206882686C
:1027600012F0010F2BD1826842F0010282604548CD
:10277000454A0068B0FBF2F010EB40000190009079
:102780001DD0B0F1004F78D20028D8BF002005DD61
:1027900010F0010002D0019A521E0192009A401CD2
:1027A000521C90420BDA00BFDDF804C0801CACF173
:1027B000010CACF1010CCDF804C09042F4DB2068B0
:1027C000826812F0010F54D0226C22F0010222F430
:1027D000C06242F480722264406810F4806F05D0B9
:1027E000206C20F4005040F480502064206C10F4E1
:1027F000805F08BF656403D0606C20F006006064F1
:1028000084F83C50A26B2248204DD063A26B214833
:102810001064A26B2048D06422686FF02200106020
:102820002068426842F0806242602068826842F418
:102830008072826020680A4600F14C0C6146A06BF1
:1028400000F0E0F9686810F01F0F206809D0A0F1CF
:102850008041B1F5903104BF816811F0405F04D030
:1028600007E0816811F0405F03D1816841F0804149
:10287000816003B0002030BDFFE70198401E019049
:10288000FCD19CE72800002040420F0000230140BB
:10289000B11400082F1500081915000890F835101C
:1028A000022903D08021416501207047052180F86D
:1028B00035100068016821F00101016000207047B7
:1028C0002DE9F84304464FF00008CDF80080734826
:1028D0004FF41651A56D0068B0FBF1F72E6894F81F
:1028E0005C00082101FA00F0304211D02068026833
:1028F00012F0040F0CD0026822F00402026094F877
:102900005C0001FA00F0A860606D40F001006065B5
:1029100094F85C1062488840304209D021684969C7
:1029200011F0800F04D0A860606D40F00200606577
:1029300094F85C105B488840304209D021680968EF
:1029400011F0020F04D0A860606D40F004006065D3
:1029500094F85C1010208840304220D0216809682B
:1029600011F0080F1BD0A8602068016811F4802FB7
:1029700009D0006810F4002F02D0A16C79B10CE0EE
:10298000216C51B90BE0016811F4807F03D101681B
:1029900021F008010160216C09B12046884794F8B4
:1029A0005C102020884030424FF001064AD0216858
:1029B000096811F0100F45D0A86094F8350005287B
:1029C0002068016809D011F4802F2BD0006810F422
:1029D000002F24D0E16B21B332E021F01601016019
:1029E0002068416921F080014161206C002804BF0A
:1029F000A06C002804D02068016821F00801016063
:102A000094F85C004FF03F0101FA00F0A86084F8F0
:102A1000348084F83560216DD1BBBDE8F883616CEA
:102A200071B90FE0016811F4807F07D1016821F0CE
:102A30001001016084F8348084F83560E16B09B1DD
:102A400020468847606D002808BFBDE8F883606DA8
:102A500010F0010F17D04FF0050084F83500206802
:102A6000016821F001010160009800F1010000906F
:102A7000B84204D82068006810F0010FF4D184F83F
:102A8000348084F83560E16C002908BFBDE8F88324
:102A9000204601B0BDE8F0430847000028000020B0
:102AA000010080000400800070B5044600F04EFA7A
:102AB0000546002C04BF012070BD002684F8346058
:102AC000022084F835002068016821F001010160CE
:102AD0002068006810F0010F10D000BF00F036FA37
:102AE000401B052805D920206065032084F83500A7
:102AF00070BD2068006810F0010FEFD121680868F0
:102B00003D4A1040D4E901231A43D4E9033C43EA87
:102B10000C031A4363691A43A3691A43E3691A430E
:102B2000236A1A431043626A042A03D1D4E90B23AF
:102B30001A4310430860D4F800C0DCF814000123E5
:102B400020F00701606A40EA0102042837D1A16A37
:102B5000E06A0A4318B3A56955B1B5F5005F14D012
:102B600000291CBF0129022921D003291CD026E0FD
:102B700019B1012905D0022921D110F0807F1ED082
:102B800015E0B0F1C07F1AD111E081B1012907D061
:102B900002290CD0032908BFB0F1C07F07D00EE096
:102BA00010F0807F03D10AE010F0807F07D04FF053
:102BB0004000606584F835304FF0010070BDCCF8FE
:102BC000142020680D4AC1B2A1F11001A2FB01211D
:102BD0000B4A4FEA11110329525CE2656FF30900B9
:102BE00088BF001D3F219140A0658160666584F823
:102BF0003530002070BD00003F8010F0ABAAAAAABB
:102C0000AC74000870B490F83450846D4FF0000C30
:102C1000012D02BF022070BC7047012580F834509E
:102C200090F835600025012E1CBF80F834504FF01D
:102C3000020C02D070BC60467047022680F83560F6
:102C4000456505682E6826F480262E6005686B6051
:102C50008368402B036803BF9A600268D160996063
:102C60001CBF0168CA6090F85C103F2202FA01F1B3
:102C7000A16001680A6842F016020A6001684A69A8
:102C800042F080024A61016C21B101680A6842F099
:102C900008020A600068016841F001010160C9E7AB
:102CA000B0F5807F18BF704710B54FF480710948A8
:102CB00000F03EF90100084805D00122BDE81040AF
:102CC000114600F03EB90022BDE81040012100F09D
:102CD00038B90000001802400014024004490A6894
:102CE000024208BF704710B50860FFF7D9FF10BD5A
:102CF000143C01402DE9F84F0022884EDFF820E215
:102D000001274FF0030A4FF00F0800BF0B6807FAC6
:102D100002F42340A34240F0FB80D1F804C0BCF190
:102D2000020F18BFBCF1120F15D14FEAD20C00EB05
:102D30008C0CDCF820504FEA42794FEAD96908FA46
:102D400009FB25EA0B05D1F810B00BFA09F949EA9D
:102D50000505CCF82050D0F800904FEA420C91F8CD
:102D600004B00AFA0CF50BF0030B29EA05090BFA7B
:102D70000CFB4BEA0909C0F80090D1F80490B9F1B6
:102D8000010F18BFB9F1020F05D0B9F1110F18BF2B
:102D9000B9F1120F18D1D0F80890D1F80CB029EA87
:102DA00005090BFA0CFB4BEA0909C0F80890D0F8AA
:102DB000049029EA040491F80490C9F3001909FA6F
:102DC00002F949EA04044460C46824EA05048D68F1
:102DD00005FA0CFC4CEA040CC0F80CC0D1F804C095
:102DE0001CF0805F7ED0D6F800C04CF4804CC6F852
:102DF00000C0D6F800C00CF4804CCDF800C022F022
:102E0000030C0CF1804505F59835D5F808C84FEA54
:102E100082744FEA147408FA04F92CEA090CA0F140
:102E20008049B9F5003938D0A0F18049B9F50139A8
:102E300008BF4FF0010930D0A0F18049B9F502393F
:102E400008BF4FF0020928D0A0F18049B9F5033935
:102E500008BF4FF0030920D0A0F18049B9F504392B
:102E600008BF4FF0040918D0A0F18049B9F5053921
:102E700008BF4FF0050910D0A0F18049B9F5063917
:102E800008BF4FF0060908D0A0F18049B9F507390D
:102E90000CBF4FF007094FF0080909FA04F444EA9F
:102EA0000C0CC5F808C8DEF800C04C682CEA030C0E
:102EB00014F4803F18BF4CEA030CCEF800C0194C44
:102EC000D4F800C04D682CEA030C15F4003F18BF7D
:102ED0004CEA030CC4F800C0134CD4F800C02CEA30
:102EE000030C00E014E04D6815F4801F18BF4CEA95
:102EF000030CC4F800C00D4CD4F800C04D682CEA97
:102F0000030C15F4001F18BF4CEA030CC4F800C0F2
:102F1000521C102AFFF4FAAEBDE8F88F4438024084
:102F2000003C0140043C0140083C01400C3C014095
:102F30000069084018BF0120704742695140416153
:102F40007047002A08BF0904816170470148006882
:102F5000704700000000002002480168491C016021
:102F600070470000000000200B4810B5016841F4D4
:102F700000710160016841F480610160016841F401
:102F800080710160032000F09DF8002000F006F839
:102F900000F018F8002010BD003C024010B50446B7
:102FA00007484FF47A720068B0FBF2F000F0C2FDFF
:102FB00000222146501E00F053F8002010BD0000F2
:102FC000280000201E4808B5016841F480410160D6
:102FD000006800F4804000901A48016841F0805178
:102FE0000160006800F080500090032000F06AF853
:102FF000002211466FF00B0000F032F8002211465B
:103000006FF00A0000F02CF8002211466FF0090062
:1030100000F026F800221146501F00F021F800228F
:103020001146101F00F01CF800221146901E00F0FF
:1030300017F80022BDE808401146501E00F010B8F5
:10304000443802404038024000F01F01012202FAD9
:1030500001F14009800000F1E020C0F80011704744
:10306000174B10B41B68C3F30223C3F1070CBCF168
:10307000040F88BF4FF0040C1C1D072C34BF002325
:10308000DB1E012404FA0CFCACF1010C0CEA01017A
:10309000994004FA03F35B1E1A40114300284FEADB
:1030A0000111A1BF00F1E02080F8001410BC7047AE
:1030B00000F00F0000F1E02080F8141D10BC7047F4
:1030C0000CED00E0074900F007000A684FF6FF0327
:1030D0001A4042EA002040F0FD7040F08060086035
:1030E000704700000CED00E02DE9F05F5F4F0646F1
:1030F0008946386801F0FF0A00F00F00484506D203
:1031000087F800A0386800F00F00484540D13078BB
:10311000574D10F0020F05D02868B16820F0F0007C
:1031200008432860307810F0010F65D0706851496D
:10313000012825D0022818BF0328096825D011F0DE
:10314000020F65D0296821F0030141EA00002860E0
:10315000FFF7FCFE0446706841F28838012818D059
:10316000022826D00328286833D010F00C0F43D053
:10317000FFF7ECFE001B40453AD90320BDE8F09F65
:10318000096811F4003FDDD142E011F0007FD9D190
:103190003EE0286800F00C0004282DD0FFF7D6FE92
:1031A000001B4045E9D8286800F00C000428F5D140
:1031B00022E0286800F00C0008281DD0FFF7C6FEAA
:1031C000001B4045D9D8286800F00C000828F5D12C
:1031D00012E04FF00C0B3BEA00000DD0FFF7B6FEFB
:1031E000001B4045C9D828683BEA0000F6D103E03F
:1031F000286810F00C0FBBD1386800F00F00814533
:1032000009D287F800A0386800F00F00484502D0C6
:103210000120BDE8F09F307810F0040F05D0286839
:10322000F16820F4E05008432860307810F0080F6F
:1032300006D02868316920F4604040EAC100286067
:1032400000F054F82968F02292FAA2F201F0F0019D
:10325000B2FA82F2D140084A515CC840074908607E
:103260000020FFF79BFE0020BDE8F09F003C0240DD
:103270000838024000380240B474000828000020DA
:1032800001480068704700002800002008480949EC
:10329000006809684FF4E05292FAA2F201F4E0519A
:1032A000B2FA82F2D140044A515CC8407047000033
:1032B0002800002008380240C47400080848094962
:1032C000006809684FF4604292FAA2F201F460418A
:1032D000B2FA82F2D140044A515CC8407047000003
:1032E0002800002008380240C47400082048006804
:1032F00010F00C011F4808BF7047DFF87CC004299C
:1033000004BF60467047082918BF704710B41B4BB4
:10331000196801F03F02196811F4800F47F6C07177
:103320000BD0BCFBF2F01A680A4091FAA1F1B1FA95
:1033300081F122FA01F148430AE0B0FBF2F01A6889
:103340000A4091FAA1F1B1FA81F122FA01F1484360
:1033500019684FF4403292FAA2F201F44031B2FA05
:1033600082F2D140491C4900B0FBF1F010BC70471B
:10337000083802400024F40000127A0004380240A9
:103380002DE9F84F04460078E34FE44D10F0010FAB
:1033900058D0386800F00C0004280AD0386800F0D3
:1033A0000C0008280ED105F10400006810F4800F0D
:1033B00008D0286810F4003F44D06068002800F06E
:1033C000A8813FE06068B0F5803F19D0B0F5A02F2C
:1033D00028680CBF40F4802020F4803028602868E2
:1033E0000CBF40F4803020F4802028606068B8B1C1
:1033F000FFF7ACFD0646286810F4003F05D021E039
:10340000286840F480302860F0E7FFF79FFD801BBC
:10341000642800F22881286810F4003FF5D011E0FC
:10342000FFF794FD0646286810F4003F0AD000BF5D
:10343000FFF78CFD801B642800F21581286810F4CA
:10344000003FF5D12078DFF8D88210F0020F4FF05E
:1034500000095AD038684FF0F80A10F00C0F17D056
:10346000386800F00C00082804D1AE48006810F459
:10347000800F0DD0E068A8B34FF00100C8F800003D
:10348000FFF764FD0646286810F0020F15D01DE016
:10349000286810F0020F1CBFE068012840F0398155
:1034A00028689AFAAAF22169B2FA82F220F0F800AA
:1034B00001FA02F140EA010012E0FFF747FD801B2C
:1034C00002287CD8286810F0020FF6D028689AFAF3
:1034D000AAF220F0F8012069B2FA82F29040084383
:1034E000286012E0FFE7C8F80090FFF72FFD0646BE
:1034F000286810F0020F08D0FFF728FD801B022873
:103500005DD8286810F0020FF6D1207810F0080F6F
:103510002AD08548854E616999B101210160FFF784
:1035200015FD8246306810F0020F1DD1FFF70EFD29
:10353000A0EB0A00022842D8306810F0020FF5D044
:1035400012E0C0F80090FFF701FD8246306810F0ED
:10355000020F09D0FFF7FAFCA0EB0A0002282ED8D0
:10356000306810F0020FF5D1207810F0040F63D00E
:103570006F48016841F08051016000686D4E00F0B5
:1035800080500090306840F480703060FFF7DEFCBF
:103590008246306810F4807F0AD100BFFFF7D6FC66
:1035A000A0EB0A0002285ED8306810F4807FF5D0C6
:1035B000A068614E01281DD00528306800E052E067
:1035C0000CBF40F0040020F00100306030680CBFF8
:1035D00040F0010020F00400C6F80000A06841F2AD
:1035E000883BB8B1FFF7B2FC8246306810F0020F9A
:1035F00005D021E0306840F001003060EEE7FFF7D1
:10360000A5FCA0EB0A0058452DD8306810F0020F39
:10361000F5D011E0FFF79AFC8246306810F0020FF7
:103620000AD000BFFFF792FCA0EB0A0058451AD859
:10363000306810F0020FF5D1A069E0B3396801F0ED
:103640000C01082965D00228C8F860900ED0FFF759
:103650007DFC0446286810F0007F57D0FFF776FC09
:10366000001B02284ED90320BDE8F88FFFF76EFC3F
:103670000646286810F0007F09D000BFFFF766FCFF
:10368000801B0228EFD8286810F0007FF6D1D4E91B
:10369000070140EA010247F6C07191FAA1F1606AA0
:1036A000B1FA81F18840A16A4FF0FF3303EB510179
:1036B0004FF4403300E029E093FAA3F3B3FA83F325
:1036C0009940084310434FF0706292FAA2F2E16A07
:1036D000B2FA82F291400143124801600120C8F819
:1036E0006000FFF733FC0446286810F0007F0DD11E
:1036F000FFF72CFC001B0228B5D8286810F0007FCB
:10370000F6D003E0286810F0007FA7D10020BDE8C4
:10371000F88F0120BDE8F88F0838024000380240D9
:103720000000474204380240800E4742743802408D
:10373000403802400070004070380240002804BF4A
:103740000120704770B500250446856290F851004D
:1037500020B984F85050204600F030F8022084F858
:1037600051002068016821F040010160D4E90101A5
:103770000843D4E903121143084361690843218BCC
:1037800001F400710843E1690843216A0843A16A12
:10379000084321680860A069042101EA1040616AB9
:1037A0000843216848602068C16921F40061C16153
:1037B0006565012084F85100002070BD00B50068E7
:1037C00087B0A0F18041B1F560511CBF07B000BDCA
:1037D00000211148026842F002020260006800F015
:1037E000020005900D48026842F4804202600068C1
:1037F00000F4804005904FF4604000900220CDE935
:103800000101032003900520049069460448FFF756
:1038100071FA07B000BD0000303802404038024065
:10382000000402402DE9F84F044690F85000DDF8FE
:1038300028909B4616460D464FF0010A4FF00008AF
:10384000012804BF0220BDE8F88F012084F8500051
:10385000FFF77CFB074694F851006168012809D006
:10386000B1F5827F03BFA168002904284FF0020848
:1038700040F0D680002D1ABF002EBBF1000F4FF094
:10388000010800F0CD8094F85100012804BF052004
:1038900084F8510000206065A663A4F83EB0A4F847
:1038A0003CB02563A4F836B0A4F834B0206460645A
:1038B0002068016811F0400F03D1016841F0400118
:1038C0000160E068B0F5006F606805D000281CBF9B
:1038D000E08E01284DD081E000281CBFE08E012839
:1038E00034D1216835F8020BC860E08EA0F10100E8
:1038F000E0862BE0BAF1000F1CBFE08E00280DD04F
:103900002068816811F0020F08D035F8021BC160F1
:10391000E08EA0F10100E0864FF0000AE08F68B170
:103920002068816811F0010F08D0C06826F8020BEA
:10393000E08FA0F10100E0874FF0010AB9F1FF3FED
:1039400004D0FFF703FBC01B48450FD2E08E0028D0
:1039500004BFE08F0028CDD14B464FF001024FF05D
:1039600002012046009702F03BF8E8B34FF003084D
:1039700056E0216815F8010B0873E08E401EE086C2
:103980002CE000BFBAF1000F1CBFE08E00280DD064
:103990002068816811F0020F08D015F8011B01732F
:1039A000E08EA0F10100E0864FF0000AE08F68B1E0
:1039B0002068816811F0010F08D0C06806F8010B7B
:1039C000E08FA0F10100E0874FF0010AB9F1FF3F5D
:1039D00004D0FFF7BBFAC01B4845C7D2E08E0028D1
:1039E00004BFE08F002800E001E0CBD1B4E74B46F4
:1039F0004FF000024FF080012046009701F0F0FFE9
:103A000040B1606D40F02001616520204FF0010859
:103A1000606505E0A06818B92068C16880680090FA
:103A2000012084F85100002084F850004046BDE891
:103A3000F88F002804BF0120704770B5044690F845
:103A4000490015460E4628B9002084F84800204653
:103A500000F01AF804F108012068FDF7FFFE314676
:103A6000A2682068FDF728FFD4E901022946236BEC
:103A7000FDF7CEFEA168206850F8212042F0010237
:103A800040F82120002070BDF0B51F4887B0002409
:103A9000016841F008010160016801F00801059129
:103AA000016841F010010160006800F0100005900D
:103AB0001648016800291CBF07B0F0BD0121016054
:103AC0001348016841F0010101600068022500F01F
:103AD000010005904FF680700326CDE90005CDE981
:103AE00002460C27694604970A48FFF703F94CF68B
:103AF000B370CDE90005CDE9024669460497064852
:103B0000FFF7F8F807B0F0BD303802400800002099
:103B10003838024000100240000C02404FF0E02113
:103B2000042808690CBF40F0040020F0040008617C
:103B300070477047411EB1F1807F24BF012070475C
:103B40004FF0E0204161054AF02182F8141D002168
:103B50008161072101610020704700000FE000E053
:103B600010B5FFF7E6FF10BD7047704790F838209A
:103B7000012A04BF0220704710B4012280F83820C7
:103B8000022380F839300368D3F804C02CF0700C9D
:103B9000C3F804C00368D3F804C00C684CEA040CF2
:103BA000C3F804C00368D3F808C02CF0800CC3F835
:103BB00008C00368D3F808C049684CEA010199605D
:103BC00080F83920002180F8381010BC0846704772
:103BD000002804BF0120704710B5044690F8390052
:103BE00028B9002084F83800204600F00DF80220A3
:103BF00084F83900211D206802F088F8012084F83B
:103C00003900002010BD000008B502682B49B2F150
:103C1000804F36D0A2F18043B3F500631ED0A2F1ED
:103C20008043B3F5406335D0A2F18043B3F5A05390
:103C300018BF08BD0A6842F020020A60096801F056
:103C40002001009100F044F8002808BF08BD40F2B0
:103C50000311BDE808401AA002F080BB0A6842F0D8
:103C600004020A60096801F00401009100F030F8D4
:103C7000002808BF08BDE321BDE8084010A002F0FD
:103C80006DBB086840F001000860086800F00100A2
:103C9000009008BD0A6842F008020A60096801F055
:103CA0000801009100F014F8002808BF08BDF321B6
:103CB000BDE8084002A002F051BB000040380240BD
:103CC0002E2E2F5372632F74696D2E630000000037
:103CD0000168CA6842F00102CA600068016841F0E8
:103CE0000101016000207047022180F8391001684D
:103CF0000A6A41F211131A4207D10A6A9B101A424A
:103D000003D10A6822F001020A60012180F839100B
:103D1000002070470168CA6822F00102CA6000688A
:103D2000016A41F21112114207D1016A9210114247
:103D300003D1016821F0010101600020704790F873
:103D40003820012A0DBF0220012380F83830704747
:103D500030B4022280F839200268D2F808C02CF072
:103D6000770C2CF47F4CC2F808C00A68502A41D066
:103D70000CDC202A77D004DC002A75D0102A74D0FD
:103D8000B1E0302A72D0402A72D0ACE0602A4ED026
:103D9000702A0BD0B2F5805F03D0B2F5005F17D068
:103DA000A1E001688A6822F007023EE00268D1F8CB
:103DB00004C08C68C96895684CEA012125F47F45E8
:103DC00021432943916001688A6842F077022CE020
:103DD0000268D1F804C08C68C96895684CEA012172
:103DE00025F47F4521432943916001688A6842F4A4
:103DF00080421AE00268D1F804C0C968146A156AE2
:103E000025F001051562956924F00A0425F0F005F6
:103E100045EA011144EA0C0C9161C2F820C0016826
:103E20008A6822F0700242F057028A605BE0026802
:103E3000D1F804C0CC68116A21F0100111629569B3
:103E4000116A25F4704545EA043421F0A00141EAE5
:103E50000C119461116201688A6822F0700242F0CC
:103E600067028A603FE02FE01EE025E034E0FFE7D4
:103E70000268D1F804C0CC68116A156A25F0010502
:103E80001562956921F00A0125F0F00545EA041450
:103E900041EA0C019461116201688A6822F07002A3
:103EA00042F047028A601EE001688A6822F07002D0
:103EB00042F007028A6016E001688A6822F0700208
:103EC00042F017028A600EE001688A6822F07002F0
:103ED00042F027028A6006E001688A6822F07002D8
:103EE00042F037028A6080F83930002180F83810BB
:103EF00030BC08467047704770B5044600680169D9
:103F00004FF0000511F0020F1CBFC16811F0020F45
:103F100013D06FF0020101610120207620688069D2
:103F200010F0030F204602D0FFF7E5FF04E000F099
:103F300099F8204600F0D0F925762068016911F043
:103F4000040F1CBFC16811F0040F13D06FF00401FF
:103F50000161022020762068806910F4407F2046AD
:103F600002D0FFF7C8FF04E000F07CF8204600F024
:103F7000B3F925762068016911F0080F1CBFC168EC
:103F800011F0080F13D06FF00801016104202076B2
:103F90002068C06910F0030F204602D0FFF7ABFF86
:103FA00004E000F05FF8204600F096F925762068DE
:103FB000016911F0100F1CBFC16811F0100F13D070
:103FC0006FF010010161082020762068C06910F4AC
:103FD000407F204602D0FFF78EFF04E000F042F859
:103FE000204600F079F925762068016911F0010F6B
:103FF0001CBFC16811F0010F05D06FF00101016114
:10400000204600F0FFF92068016911F0800F1CBF05
:10401000C16811F0800F05D06FF08001016120466A
:10402000FFF7A2FD2068016911F0400F1CBFC168B5
:1040300011F0400F05D06FF040010161204600F003
:1040400025FA2068016911F0200F1ABFC16811F02C
:10405000200F70BD6FF0200101612046BDE8704067
:10406000FFF783BD7047000090F83830012B04BF84
:10407000022070472DE9F001012480F83840022326
:1040800080F83930844BDFF814C242B1042A45D09D
:10409000082A7DD00C2A00F0C28000F0F3B8026834
:1040A000156A25F001051562156A56689769D1F8F9
:1040B000008027F0730748EA0707D1F8088025F049
:1040C000020548EA05059A4218BF624511D1D1F8A8
:1040D0000CC025F008034CEA030323F00405D1F8D3
:1040E00014C026F440734CEA0303D1F818C04CEA1C
:1040F0000306566097614B685363156202689369C3
:1041000043F0080393610268936923F00403936109
:1041100002689369096943EA01013FE00268156A90
:1041200025F010051562156A56689769D1F8008068
:1041300027F4E64747EA0827D1F8088025F020054C
:1041400045EA08159A4218BF624511D1D1F80CC052
:1041500025F0800343EA0C1323F04005D1F814C086
:1041600026F4406343EA8C03D1F818C043EA8C0676
:10417000566097614B68936315620268936943F4D4
:10418000006393610268936923F48063936100E0A4
:1041900006E002689369096943EA0121916171E0CF
:1041A0000268156A25F480751562166A5568D76924
:1041B000D1F8008027F0730748EA0707D1F8088094
:1041C00026F4007646EA08269A4218BF624511D1C5
:1041D000D1F80CC026F4006343EA0C2323F4806674
:1041E000D1F814C025F4405343EA0C13D1F818C099
:1041F00043EA0C155560D7614B68D36316620268B9
:10420000D36943F00803D3610268D36923F0040340
:10421000D3610268D369096943EA010131E00268A8
:10422000156A25F480551562176A5568D669D1F864
:10423000008026F4E64646EA0826D1F8088027F4EE
:10424000005747EA08379A4218BF624505D1D1F8AE
:1042500014C025F4804343EA8C155560D6614B6841
:10426000136417620268D36943F40063D361026880
:10427000D36923F48063D3610268D369096943EA8F
:104280000121D16180F839404FF0000180F83810E9
:10429000BDE8F001084670470000014000040140FD
:1042A000002804BF0120704710B5044690F839007B
:1042B00028B9002084F83800204600F00CF80220CD
:1042C00084F83900211D206801F020FD012084F8C8
:1042D0003900002010BD704770470268012303FABF
:1042E00001F1136A8B431362136A19431162016867
:1042F000A1F18042B2F580321CBFA1F18042B2F53B
:10430000823203D14A6C42F400424A640068016878
:1043100041F001010160002070470268002904BFDC
:10432000D36843F0020311D0042904BFD36843F0DB
:1043300004030BD0082904BFD36843F0080305D059
:104340000C2904BFD36843F0100300D1D360026886
:10435000012303FA01F1136A8B431362136A1943B1
:1043600011620168A1F18042B2F580321CBFA1F157
:104370008042B2F5823203D14A6C42F400424A6470
:104380000068016841F0010101600020704730B40D
:10439000026801234FF0000C156A03FA01F425EAC4
:1043A00004041462146A0CFA01F1214311620168D9
:1043B00041F21112A1F1804440F2444CB4F5803432
:1043C0001CBFA1F18044B4F582340AD10C6A1442B6
:1043D00004BF0C6A14EA0C0F03D14C6C24F40044A3
:1043E0004C6401680C6A144204BF0A6A12EA0C0F9A
:1043F00003D10A6822F001020A6080F8393030BC2B
:104400000020704710B50368A3F18040B0F500604C
:1044100008BF10BD002101221948A3F1804CBCF552
:10442000406C16D0A3F1804CBCF5A05C18BF10BD49
:1044300003785B1CDBB203701E2B84BF017082709B
:1044400043785B1CDBB24370012B84BF4170C270A8
:1044500010BD02718268521C8260052AB8BF10BD6F
:10446000084A92F83E20002A18BF10BD8160064815
:10447000FFF72EFCBDE8104004210348FFF72DBFD5
:104480001000002084140020801100207047704725
:1044900070B5016804460868CA684B6910F00F0FD0
:1044A0004FF0200545D003F0010C02F490765CEA51
:1044B000060C00F0F38010F0010F18BF12F4807F9B
:1044C00005D0D4F83CC04CF0010CC4F83CC010F04E
:1044D000040F18BF13F0010F05D0D4F83CC04CF006
:1044E000020CC4F83CC010F0020F18BF13F0010F0B
:1044F00005D0D4F83CC04CF0040CC4F83CC010F01B
:10450000080F18BF13F0010F03D0E36B43F008034B
:10451000E363E36B002B08BF70BD10F0200F18BFE2
:1045200012F0200F73D094F83A202046222A44D06B
:104530007DE010F0200F18BF12F0200F68D094F823
:104540003A202046222A18BF70BD8268B2F5805FEB
:104550001ED002695AB3496801F07F02816A4B1C80
:1045600083620A70C18D491E0904090CC18518BFF8
:1045700070BD0168CA6822F49072CA6001684A6915
:1045800022F001024A6180F83A5000F04DF970BD06
:104590000369826A4968002B14BFC9B2C1F30801DC
:1045A0001180816A14BF491C891C8162DAE74A685C
:1045B000816A4B1C83620A70D4E78268B2F5805F1F
:1045C0000FD00269E2B1496801F07F02816A4B1C99
:1045D00083620A70C18D491E0904090CC18526D168
:1045E00017E00369826A4968002B14BFC9B2C1F39E
:1045F00008011180816A14BF491C891C8162E9E7A6
:104600004A68816A01F1010383620A70E2E70EE001
:1046100044E00168CA6822F49072CA6001684A697D
:1046200022F001024A6180F83A5000F0FDF820685B
:104630004169E26BC1F3801112F0080F08BF002935
:1046400026D0C16821F49071C1602068416921F0D1
:104650000101416184F83A502068416911F0400F2E
:1046600012D0416921F040014161606B60B12D4978
:104670000165606BFEF712F9002808BF70BD606B22
:10468000016DBDE8704008472046FFF700FF70BD90
:104690002046FFF7FCFE0020E06370BD10F0800FA5
:1046A00018BF12F0800F2CD094F83900212818BFC1
:1046B00070BDA068B0F5805F206A16D0411C2162F1
:1046C000216800784860E08C401E0004000CE08403
:1046D00018BF70BD2068C16821F08001C1602068EA
:1046E000C16841F04001C16070BD0088C0F308009E
:1046F000486020690028206A14BF401C801C20628A
:10470000E1E710F0400F14BF12F0400F70BD2046DB
:10471000CA6822F04002CA6084F8395000F0A2F85A
:1047200070BD0000D15D0008002804BF0120704763
:1047300070B5044690F83900002520B984F8385047
:10474000204600F023F8242084F839002068C1684E
:1047500021F40051C160204601F042FB206801694C
:1047600021F4904101612068416921F02A014161F1
:104770002068C16841F40051C160E563202084F8DD
:10478000390084F83A00002070BD000000B50068D0
:1047900087B0A0F18041B1F588311CBF07B000BDE2
:1047A0000C48016841F0100101600068694600F0A2
:1047B000100005904FF4C06000900220019001208D
:1047C000029003200390072004900348FEF792FA1A
:1047D00007B000BD443802400000024090F83A3073
:1047E000202B1ED1002912BF002A0120704790F80B
:1047F0003830012B15D081628285C2850021C163CA
:10480000222280F83A2080F8381001684A6942F084
:1048100001024A610068C16841F49071C1600020E2
:1048200070470220704700000068A0F18041B1F598
:10483000883118BF70470848084B418802785A549D
:10484000491C89B24180642924BF00214180012292
:1048500001490348FFF7C2BF1C000020701200206E
:10486000381300207047FEE72DE9F041354E07462A
:104870000122002411463046FEF763FB002500228A
:1048800002213046FEF75DFB14200021491C89B24D
:104890008142FBD3012202213046FEF752FB600623
:1048A000040E01213046FEF743FB00281CBF601CAC
:1048B000C4B214200021491C89B28142FBD3681C78
:1048C000C5B2082DDBD34FF000024FF00201304695
:1048D000FFB1FEF736FB002201213046FEF731FB27
:1048E00014210020401C80B28842FBD30122022107
:1048F0003046FEF726FB14210020401C80B288427F
:10490000FBD3002202213046FEF71BFB2046BDE808
:10491000F081FEF716FB012211463046FEF711FB2F
:1049200014210020401C80B28842FBD301220221C6
:104930003046FEF706FB14210020401C80B288425E
:10494000FBD3DEE70018024038B5224D04460022B2
:1049500002212846FEF7F5FA00208DF800009DF8A8
:104960000000082828BF38BD14F0800F05D00122B0
:1049700011462846FEF7E5FA04E000220121284608
:10498000FEF7DFFA14200021491C89B28142FBD3D3
:10499000012202212846FEF7D4FA14200021491CE6
:1049A00089B28142FBD3002202212846FEF7C9FAD0
:1049B00014200021491C89B28142FBD36006040EF9
:1049C0009DF80000401C8DF800009DF800000828AC
:1049D000CAD338BD0018024010B5114C0022012185
:1049E0002046FEF7AEFA002202212046FEF7A9FA81
:1049F00028220021491C89B29142FBD30122114691
:104A00002046FEF79EFA012202212046FEF799FA7F
:104A100028210020401C80B28842FBD310BD00003A
:104A20000018024038B50020ADF800002A4C0122E1
:104A300011462046FEF785FA0A220021491C89B258
:104A40009142FBD3012202212046FEF77AFA0A2284
:104A50000021491C89B29142FBD301212046FEF777
:104A600067FA002831D000BFBDF80000401CADF847
:104A70000000BDF800001E2821D900220121204697
:104A8000FEF75FFA002202212046FEF75AFA28229A
:104A90000021491C89B29142FBD3012211462046D4
:104AA000FEF74FFA012202212046FEF74AFA28219A
:104AB0000020401C80B28842FBD3012038BD012178
:104AC0002046FEF735FA0028CED1002202212046EA
:104AD000FEF737FA002038BD001802400D4810B527
:104AE000016886B041F01001016000680A4C00F0D6
:104AF00010000590552000900120019002200290A6
:104B000069462046FEF7F6F804212046FEF715FA1E
:104B100006B010BD30380240001402400021017080
:104B200041708170C17070470B4800B5026887B052
:104B3000002142F010020260006800F010000590B1
:104B40000F20CDE900010120029069460348FEF7DD
:104B5000D1F807B000BD000030380240001002401C
:104B600070B50446C0B21A4D012807D1012128466C
:104B7000FEF7E3F902211748FEF7DFF9C4F3072037
:104B8000012808D104212846FEF7D7F94FF4006127
:104B90002846FEF7D2F9C4F30740012808D11021B6
:104BA0002846FEF7CAF94FF480512846FEF7C5F9AA
:104BB000200E012818BF70BD40212846FEF7BDF920
:104BC0002846BDE870404FF40051FEF7B6B900002A
:104BD0000014024000040240F0B5DB4D87B000270E
:104BE000286840F0080028602868012600F00800C6
:104BF00005904FF40050CDE90006D44CCDE9027683
:104C000069462046FEF776F8012251032046FEF75A
:104C100098F9286840F0200028602868CDE90276DD
:104C200000F020000590B003CDE90006C84E6946AB
:104C30003046FEF75FF800224FF480413046FEF721
:104C400080F900224FF400512046FEF77AF909213D
:104C50004FF4E155ADF8005005E000BFBDF800008D
:104C6000401EADF80000BDF800000028F6D1491E36
:104C7000B1F1FF3FEEDC012251032046FEF761F95E
:104C80005FF00101ADF8005005E000BFBDF8000085
:104C9000401EADF80000BDF800000028F6D1491E06
:104CA000B1F1FF3FEEDC4FF0C042FF201080A94C75
:104CB00020809820208006202080BC2010800320A7
:104CC00020800F2020806320208069202080012008
:104CD000208020801B2020801120208070202080B8
:104CE00073202080FF202080208008202080092041
:104CF00020800520208000202080EE202080E220DF
:104D000020800120208000202080C1202080BD2024
:104D100010800120208023202080452020806720D3
:104D200020800120208023202080452020806720B3
:104D30002080BE201080002020802220208027207C
:104D400020806A202080BC202080D82020809220D3
:104D50002080222020802080C72010808F2020806B
:104D600080202080ED2010807F2020800F20208058
:104D7000C0201080C72020800B20208002202080AF
:104D8000002020802080882020802C20208050201F
:104D9000208000202080208020802080FF20208014
:104DA000FC20108004202080DF2010800020208044
:104DB000208020802080208020202080F3201080F0
:104DC00074202080B420108000202080208020804B
:104DD000F720108081202080B120108000202080CA
:104DE0001020208014202080F12010802920208095
:104DF0008A20208007202080F22010804020208000
:104E0000D22020805020208028202080C1201080A7
:104E10001720208085202080208020202080E020F6
:104E20001080002020800C202080152020800D2064
:104E300020800F2020800C2020800720208005204B
:104E40002080072020800B202080102020802080C0
:104E50000D202080172020800F202080002020801F
:104E6000E1201080002020800D202080152020804F
:104E70000E202080102020800D20208008202080FF
:104E800006202080072020800C20208011202080F8
:104E900020800E202080172020800F2020800020DE
:104EA0002080352010800020208036201080A02017
:104EB00020803A20108055202080112010807723F8
:104EC000ADF8005005E000BFBDF80000411EADF890
:104ED0000010BDF800000028F6D15B1EB3F1FF3FC3
:104EE000EEDC292010800922ADF8005005E000BF5B
:104EF000BDF80000411EADF80010BDF8000000280C
:104F0000F6D1521EB2F1FF3FEEDC01229103304692
:104F1000FEF717F80021072540F2DF1340F2553263
:104F2000084600F0C1F8002140F2563200202580EA
:104F30002580801C80B2B0F5F07FF8D3481C81B288
:104F40009142F3D307B0F0BD30380240000C02406C
:104F500000140240000002602DE9F041204C86B0B0
:104F60000025206840F0020020602068012600F043
:104F70000200059002200327CDE90006DFF86480D7
:104F8000CDE9025769464046FDF7B4FE00220221F2
:104F90004046FDF7D6FF206840F0200020602068E2
:104FA000114C00F0200005904FF46050CDE9000650
:104FB000CDE9025769462046FDF79CFE0122D10249
:104FC0002046FDF7BEFF0022A1142046FDF7B9FFE1
:104FD000002271032046FDF7B4FF06B0BDE8F08162
:104FE00030380240000402400014024010B504466C
:104FF000002140F2DF1340F25532084600F054F829
:10500000084A002340F2563C002114801480881C7A
:1050100081B2B1F5F07FF8D3581C83B26345F3D366
:1050200010BD00000000026070B59042049C34BFC7
:10503000A2EB000CA0EB020C1FFA8CF5994234BFD6
:10504000A3EB010CA1EB030C1FFA8CF65B1E521EA6
:105050009BB292B200F028F84FF0000CB5F1FF3F80
:1050600016D001200F49721C20EA06036D1C18009F
:1050700018BF0C80904205D20C800C80801C80B23E
:105080009042F9D30CF101001FFA80FCAC45EED33D
:10509000BDE87040002140F2DF1340F2553208466F
:1050A00000F002B80000026030B490429ABF84461B
:1050B00010469446994292BF0A461A460B462A2148
:1050C0004FF0C04421800E494FEA1C250D800CF0A2
:1050D000FF0CA1F800C04FEA102CA1F800C0C0B22C
:1050E00008802B202080100A0880D0B20880180A7F
:1050F0000880D8B208802C20208030BC7047000087
:10510000000002604FF0C0432A221A80074A4FEA8B
:10511000102CA2F800C0C0B210802B201880080A02
:105120001080C8B210802C201880704700000260E8
:1051300010B5194884B0174901604FF480314160BF
:1051400000218160016181614FF08052C262016281
:105150000124C46104634FF0407244618262C16003
:10516000FDF7E2F918B151210CA001F0F7F80A207F
:10517000CDE900040420029069460748FDF7E2F8F3
:10518000002804BF04B010BD5B2104A001F0E6F8C4
:1051900004B010BD00200140301000202E2E2F53EF
:1051A00072632F6164632E6300000000054881B0C4
:1051B000016841F480010160006800F48000009003
:1051C00001B070473038024000B5194887B04FF041
:1051D0002041016017494160002181601022C160B7
:1051E000C0E904128161C16113020162C0E90913BF
:1051F000C1620163416381634164022000900F201A
:1052000001900120CDE902011120CDE90420069191
:10521000002269460648FEF70CFC002804BF07B0D0
:1052200000BD562104A001F099F807B000BD0000B0
:10523000D8100020040100A02E2E2F5372632F6679
:10524000736D632E630000002DE9F043664887B05C
:105250000024016841F010010160016801F01001B3
:105260000591016841F004010160016801F0040149
:105270000591016841F020010160016801F0200101
:105280000591016841F080010160016801F0800131
:105290000591016841F001010160016801F001011F
:1052A0000591016841F002010160016801F002010D
:1052B0000591016841F040010160016801F0400181
:1052C0000591016841F0080101600068DFF81C8168
:1052D00000F008000590002243F601014046FDF76A
:1052E00030FE434F002241F202013846FDF729FE0D
:1052F0000F20CDE90004DFF8FC90012669460296F4
:105300004846FDF7F7FC70200325CDE90005694606
:1053100002944846FDF7EEFC43F6FE70CDE9000529
:10532000694602943448FDF7E5FC0096694640461C
:105330000196CDE90245FDF7DDFC4CF2FE70CDE9AA
:105340000005694602944046FDF7D4FC49F6FD107D
:10535000CDE90005694602942848FDF7CBFC40F6EC
:10536000FD70CDE90005694602943846FDF7C2FCA0
:105370000220CDE90006CDE9024669463846FDF730
:10538000B9FC4FF46050CDE90006CDE9024669460C
:105390004046FDF7AFFC4FF6FF60CDE90005DFF8B2
:1053A0006080694602944046FDF7A4FC3003CDE9D5
:1053B000000669463846CDE90245FDF79BFC42F2FE
:1053C0004C00CDE90005694602940E48FDF792FCB9
:1053D000300200900C48CDE9010469464046FDF7D3
:1053E00089FC07B0BDE8F083303802400014024069
:1053F0000004024000100240000802400000024089
:1054000000180240000C024000003110114810B595
:105410000F4901604FF482714160002102228160D6
:10542000C0E9031201224261520282610822C0E9EE
:105430000721416281620A21C162FEF77FF90028DB
:1054400008BF10BD4521BDE8104003A000F086BF95
:1054500000380040281100202E2E2F5372632F7326
:1054600070692E6300000000F0B5324D93B04FF02C
:1054700080400226C5E90006002440F2AC60C5E980
:10548000024028462C61FEF7A3FB18B148212AA050
:1054900000F064FF4FF480570CA926480C97FEF7E4
:1054A0004EFC18B14E2124A000F058FF2148FEF711
:1054B000F7FE18B1532120A000F050FF109410A95E
:1054C0001C481194FEF752FB18B15A211AA000F0A3
:1054D00045FF60200590AA20CDE90604042002467D
:1054E000099005A91348FEF7BFFD18B1632112A06A
:1054F00000F034FF2868B0F1804F11D0A0F1804156
:10550000B1F500611CBF13B0F0BD0097CDE9016497
:10551000CDE9034669460C48FDF7ECFB13B0F0BD3E
:105520000096CDE901640120CDE9034069460748B2
:10553000F2E70000801100202E2E2F5372632F748B
:10554000696D2E6300000000000C02400000024064
:10555000F0B5314D93B02F4E532000242E60C5E995
:10556000010440F2E730C5E903042846FEF730FBAA
:1055700018B1762129A000F0F1FE4FF480570CA954
:1055800025480C97FEF7DBFB18B17C2123A000F027
:10559000E5FE2148FEF784FE18B181211FA000F02E
:1055A000DDFE109410A91C481194FEF7DFFA18B123
:1055B00088211AA000F0D2FE602005906420CDE979
:1055C0000604002205A914480994FEF74DFD18B100
:1055D000912112A000F0C2FE29680220B1F1804F93
:1055E0000ED0B1421CBF13B0F0BD0097CDE901044D
:1055F000CDE9034069460D48FDF77CFB13B0F0BDD3
:105600000090CDE901040120CDE903406946084836
:10561000F2E7000000080040BC1100202E2E2F539E
:1056200072632F74696D2E6300000000000C02404D
:105630000000024010B5184886B0164901601749AD
:105640000024C0E9011440F24731C0E90314FEF719
:10565000BFFA18B1A32112A000F080FE4FF48050D1
:10566000009069460C48FEF76AFB18B1A9210CA00E
:1056700000F074FE049404A907480594FEF776FA36
:10568000002804BF06B010BDB02105A000F066FEE2
:1056900006B010BD000C0040F81100209F860100EC
:1056A0002E2E2F5372632F74696D2E63000000003D
:1056B00010B5124882B01049016053210024C0E99E
:1056C000011440F2E731C160FEF782FA18B1BE2141
:1056D0000BA000F043FE0094694608480194FEF7D1
:1056E00045FA002804BF02B010BDC52104A000F097
:1056F00035FE02B010BD000000140040341200203E
:105700002E2E2F5372632F74696D2E6300000000DC
:105710000D4810B50B4901604FF4E13141600021A3
:1057200081600C22C160C0E904128161C161FEF791
:10573000FBFF002808BF10BD4821BDE8104003A0B2
:1057400000F00CBE00100140381300202E2E2F5305
:1057500072632F75736172742E630000FEE77047E9
:105760007047704730B54C4D044683B000882880A0
:105770006088688020792871208928816089688103
:1057800007216846FCF7C2F89DF80200002100F0EE
:105790000F0240F6FF70012A1CBF208060800FD0EE
:1057A0002A790123002A38D04FF0020C012A18BFB1
:1057B000022A41D0032A68D02079022847D035E058
:1057C0009DF803204FF6FF7302F00F0203EA022256
:1057D00022809DF804C0624440F2563C228062451B
:1057E00028BF218004D240F2553CACEB020222805B
:1057F0009DF8052002F00F0203EA022262809DF864
:1058000006301A446280B2F5F07F28BF6180C7D2AB
:1058100040F2DF139A1A6280C2E72288824204BFF4
:105820006288824201D1217100E023716171A1710E
:105830002181618103B030BD2288824205BF628828
:10584000824284F804C0032008BF2071EED0208873
:105850002A88A0EB020000B220810028B8BF637143
:10586000C8BF84F805C008BF617160886A88A0EB72
:10587000020000B260810028B8BFA371C8BF84F8DD
:1058800006C008BFA17103B030BD2288824204BFA8
:1058900062888242C9D1C6E7781300202DE9F0471B
:1058A000DFF8BCA00446057801215046FDF740FB17
:1058B000022601274FF003084FF00009002835D0D9
:1058C000012D16BF022D84F8008084F800906578C1
:1058D0004FF002015046FDF72BFB00282CD0012D84
:1058E00016BF022D84F8018084F80190A5784FF04E
:1058F00004015046FDF71CFB002823D0012D16BFE4
:10590000022D84F8028084F80290E5784FF00801B7
:105910005046FDF70DFB00281AD0012D16BF022DB1
:1059200084F8038084F80390BDE8F087012D1ABF46
:10593000022D27702670CAE7012D1ABF022D67704D
:105940006670D3E7012D1ABF022DA770A670DCE7A1
:10595000012D1ABF022DE770E670BDE8F087000048
:10596000001002400B464FF4802101EB0011102281
:10597000184600F003BC0B4600EB40004FF48121B9
:1059800001EB00113022184600F0F8BB0B46C1B203
:10599000C0F30720A138C0EB001202EB401001EB6E
:1059A00040000349202201EB4011184600F0E6BBFD
:1059B000E0EBFFFF0B46C1B2C0F30720A138C0EBFC
:1059C000001202EB401001EB4000044900EBC00064
:1059D00001EBC0014822184600F0D0BBB8520400C9
:1059E0002DE9F04104460068DDF818801D46806806
:1059F00016460F4631EA00000CBF01200020B042DD
:105A000040D000BFB5F1FF3F33D02DB1FDF79EFA76
:105A1000A0EB0800A8422CD32068416821F0E001E7
:105A200041606068B0F5827F0BD1A068B0F5004F8F
:105A300018BFB0F5806F04D12068016821F04001E3
:105A40000160A06AB0F5005F0AD1206801684DF6D8
:105A5000FF72114001602068016841F4005101604B
:105A6000012084F85100002084F850000320BDE894
:105A7000F0812068806837EA00000CBF0120002018
:105A8000B042BFD10020BDE8F08170470B4800B59F
:105A9000026887B0002142F010020260006800F046
:105AA000100005907020CDE90001012002906946A8
:105AB0000348FDF71FF907B000BD00003038024071
:105AC0000010024010B5FDF747FABDE81040FEF7A0
:105AD00047B8000030B5254893B00025016841F073
